{
  "contractName": "CreditScorePredict",
  "abi": [
    {
      "constant": true,
      "inputs": [],
      "name": "creditScoreValue",
      "outputs": [
        {
          "name": "",
          "type": "uint256"
        }
      ],
      "payable": false,
      "stateMutability": "view",
      "type": "function"
    },
    {
      "inputs": [],
      "payable": false,
      "stateMutability": "nonpayable",
      "type": "constructor"
    },
    {
      "anonymous": false,
      "inputs": [
        {
          "indexed": false,
          "name": "_creditScore",
          "type": "uint256"
        }
      ],
      "name": "LogNewScore",
      "type": "event"
    },
    {
      "anonymous": false,
      "inputs": [
        {
          "indexed": false,
          "name": "_description",
          "type": "string"
        }
      ],
      "name": "LogNewProvableQuery",
      "type": "event"
    },
    {
      "constant": false,
      "inputs": [],
      "name": "fetchCreditScoreViaProvable",
      "outputs": [],
      "payable": true,
      "stateMutability": "payable",
      "type": "function"
    },
    {
      "constant": false,
      "inputs": [
        {
          "name": "_query",
          "type": "string"
        },
        {
          "name": "_method",
          "type": "string"
        },
        {
          "name": "_url",
          "type": "string"
        },
        {
          "name": "_kwargs",
          "type": "string"
        }
      ],
      "name": "request",
      "outputs": [],
      "payable": true,
      "stateMutability": "payable",
      "type": "function"
    },
    {
      "constant": false,
      "inputs": [
        {
          "name": "_myid",
          "type": "bytes32"
        },
        {
          "name": "_result",
          "type": "string"
        }
      ],
      "name": "__callback",
      "outputs": [],
      "payable": false,
      "stateMutability": "nonpayable",
      "type": "function"
    },
    {
      "constant": false,
      "inputs": [
        {
          "name": "_queryID",
          "type": "bytes32"
        },
        {
          "name": "_result",
          "type": "string"
        },
        {
          "name": "_proof",
          "type": "bytes"
        }
      ],
      "name": "__callback",
      "outputs": [],
      "payable": false,
      "stateMutability": "nonpayable",
      "type": "function"
    }
  ],
  "bytecode": "0x60806040523480156200001157600080fd5b50620000256401000000006200002b810204565b62001311565b62000161604080519081016040908152601982527f6a736f6e28726573756c74292e584554485a5553442e632e30000000000000006020830152805190810160405280600381526020017f4745540000000000000000000000000000000000000000000000000000000000815250606060405190810160405280603281526020017f68747470733a2f2f6170692e6b72616b656e2e636f6d2f302f7075626c69632f81526020017f5469636b65723f706169723d455448555344000000000000000000000000000081525060606040519081016040908152602582527f7b2768656164657273273a207b27636f6e74656e742d74797065273a20276a7360208301527f6f6e277d7d0000000000000000000000000000000000000000000000000000009082015264010000000062000163810204565b565b7fc4dc360d0a9c0677a3379ae0a3d81e887f761e65fdf3d7e00859d1bcd3c4738960405160208082526036908201527f50726f7661626c65207175657279207761732073656e742c207374616e64696e6040808301919091527f6720627920666f722074686520616e737765722e2e2e0000000000000000000060608301526080909101905180910390a16200025f6040805190810160405280600b81526020017f636f6d7075746174696f6e0000000000000000000000000000000000000000008152506080604051908101604052808781526020018681526020018581526020018481525062000266640100000000026401000000009004565b5050505050565b600154600090600160a060020a031615806200029f57506001546200029d90600160a060020a0316640100000000620004e4810204565b155b15620002bc57620002ba6000640100000000620004e8810204565b505b600154600160a060020a03166338cc48316040518163ffffffff167c0100000000000000000000000000000000000000000000000000000000028152600401602060405180830381600087803b1580156200031657600080fd5b505af11580156200032b573d6000803e3d6000fd5b505050506040513d60208110156200034257600080fd5b810190808051600054600160a060020a0390811691161492506200041391505057600154600160a060020a03166338cc48316040518163ffffffff167c0100000000000000000000000000000000000000000000000000000000028152600401602060405180830381600087803b158015620003bd57600080fd5b505af1158015620003d2573d6000803e3d6000fd5b505050506040513d6020811015620003e957600080fd5b81019080805160008054600160a060020a031916600160a060020a03929092169190911790555050505b606060046040519080825280602002602001820160405280156200044c57816020015b6060815260200190600190039081620004365790505b5090508251816000815181106200045f57fe5b602090810290910101528260016020020151816001815181106200047f57fe5b60209081029190910101526040830151816002815181106200049d57fe5b6020908102919091010152606083015181600381518110620004bb57fe5b60209081029091010152620004da8482640100000000620004fd810204565b9150505b92915050565b3b90565b6000620004de6401000000006200096b810204565b600154600090600160a060020a031615806200053657506001546200053490600160a060020a0316640100000000620004e4810204565b155b156200055357620005516000640100000000620004e8810204565b505b600154600160a060020a03166338cc48316040518163ffffffff167c0100000000000000000000000000000000000000000000000000000000028152600401602060405180830381600087803b158015620005ad57600080fd5b505af1158015620005c2573d6000803e3d6000fd5b505050506040513d6020811015620005d957600080fd5b810190808051600054600160a060020a039081169116149250620006aa91505057600154600160a060020a03166338cc48316040518163ffffffff167c0100000000000000000000000000000000000000000000000000000000028152600401602060405180830381600087803b1580156200065457600080fd5b505af115801562000669573d6000803e3d6000fd5b505050506040513d60208110156200068057600080fd5b81019080805160008054600160a060020a031916600160a060020a03929092169190911790555050505b60008054600160a060020a031663524f3889856040518263ffffffff167c01000000000000000000000000000000000000000000000000000000000281526004018080602001828103825283818151815260200191508051906020019080838360005b83811015620007275780820151838201526020016200070d565b50505050905090810190601f168015620007555780820380516001836020036101000a031916815260200191505b5092505050602060405180830381600087803b1580156200077557600080fd5b505af11580156200078a573d6000803e3d6000fd5b505050506040513d6020811015620007a157600080fd5b8101908080519350505050670de0b6b3a764000062030d403a0201811115620007cf575060009050620004de565b6060620007e58464010000000062000dac810204565b60008054919250600160a060020a03909116906383eed3d590849088856040518563ffffffff167c0100000000000000000000000000000000000000000000000000000000028152600401808481526020018060200180602001838103835285818151815260200191508051906020019080838360005b83811015620008765780820151838201526020016200085c565b50505050905090810190601f168015620008a45780820380516001836020036101000a031916815260200191505b50838103825284818151815260200191508051906020019080838360005b83811015620008dc578082015183820152602001620008c2565b50505050905090810190601f1680156200090a5780820380516001836020036101000a031916815260200191505b50955050505050506020604051808303818588803b1580156200092c57600080fd5b505af115801562000941573d6000803e3d6000fd5b50505050506040513d60208110156200095957600080fd5b81019080805198975050505050505050565b60008062000996731d3b2638a7cc9f2cb3d298a3da7a90b67e5506ed640100000000620004e4810204565b111562000a135760018054600160a060020a031916731d3b2638a7cc9f2cb3d298a3da7a90b67e5506ed17905562000a0a60408051908101604052600b81527f6574685f6d61696e6e6574000000000000000000000000000000000000000000602082015264010000000062000e6a810204565b50600162000da9565b600062000a3d73c03a2615d5efaf5f49f60b7bb6583eaec212fdf1640100000000620004e4810204565b111562000ab15760018054600160a060020a03191673c03a2615d5efaf5f49f60b7bb6583eaec212fdf117905562000a0a60408051908101604052600c81527f6574685f726f707374656e330000000000000000000000000000000000000000602082015264010000000062000e6a810204565b600062000adb73b7a07bcf2ba2f2703b24c0691b5278999c59ac7e640100000000620004e4810204565b111562000b4f5760018054600160a060020a03191673b7a07bcf2ba2f2703b24c0691b5278999c59ac7e17905562000a0a60408051908101604052600981527f6574685f6b6f76616e0000000000000000000000000000000000000000000000602082015264010000000062000e6a810204565b600062000b7973146500cfd35b22e4a392fe0adc06de1a1368ed48640100000000620004e4810204565b111562000bed5760018054600160a060020a03191673146500cfd35b22e4a392fe0adc06de1a1368ed4817905562000a0a60408051908101604052600b81527f6574685f72696e6b656279000000000000000000000000000000000000000000602082015264010000000062000e6a810204565b600062000c1773a2998efd205fb9d4b4963afb70778d6354ad3a41640100000000620004e4810204565b111562000c8b5760018054600160a060020a03191673a2998efd205fb9d4b4963afb70778d6354ad3a4117905562000a0a60408051908101604052600a81527f6574685f676f65726c6900000000000000000000000000000000000000000000602082015264010000000062000e6a810204565b600062000cb5736f485c8bf6fc43ea212e93bbf8ce046c7f1cb475640100000000620004e4810204565b111562000ce9575060018054600160a060020a031916736f485c8bf6fc43ea212e93bbf8ce046c7f1cb47517815562000da9565b600062000d137320e12a1f859b3feae5fb2a0a32c18f5a65555bbf640100000000620004e4810204565b111562000d47575060018054600160a060020a0319167320e12a1f859b3feae5fb2a0a32c18f5a65555bbf17815562000da9565b600062000d717351efaf4c8b3c9afbd5ab9f4bbc82784ab6ef8faa640100000000620004e4810204565b111562000da5575060018054600160a060020a0319167351efaf4c8b3c9afbd5ab9f4bbc82784ab6ef8faa17815562000da9565b5060005b90565b606062000dc164010000000062000e83810204565b62000dcb62001257565b62000de781610400640100000000620014a362000e8f82021704565b62000e0081640100000000620014d162000ebe82021704565b60005b835181101562000e475762000e3e84828151811062000e1e57fe5b906020019060200201518390640100000000620014df62000ed782021704565b60010162000e03565b5062000e61816401000000006200150162000f0e82021704565b80519392505050565b600281805162000e7f9291602001906200126f565b5050565b60405180590338823950565b80602081061562000ea35760208106602003015b60208301819052604051928390526000835290910160405250565b62000ed481600464010000000062000f24810204565b50565b62000eef826003835164010000000062000f47810204565b62000f09828264010000000062001625620010b282021704565b505050565b62000ed481600764010000000062000f24810204565b62000e7f82601f602060ff85160217640100000000620016be6200116682021704565b6017811162000f7a5762000f748360ff848116602002168317640100000000620011668102620016be1704565b62000f09565b60ff811162000fc95762000fa6836018602060ff86160217640100000000620016be6200116682021704565b62000fc283826001640100000000620016f7620011ab82021704565b5062000f09565b61ffff8111620010125762000ff6836019602060ff86160217640100000000620016be6200116682021704565b62000fc283826002640100000000620016f7620011ab82021704565b63ffffffff81116200105d576200104183601a602060ff86160217640100000000620016be6200116682021704565b62000fc283826004640100000000620016f7620011ab82021704565b67ffffffffffffffff811162000f09576200109083601b602060ff86160217640100000000620016be6200116682021704565b620010ac83826008640100000000620016f7620011ab82021704565b50505050565b620010bc62001257565b82602001518351518351011115620010ff57620010ff83620010ed856020015185516401000000006200120e810204565b60020264010000000062001227810204565b60008060008451905085518051602081830101945086510190526020850191505b602081106200114257815183526020928301929190910190601f190162001120565b60001960208290036101000a01801983511681855116179093525093949350505050565b8160200151825151600101111562001194576200119482836020015160020264010000000062001227810204565b815180516020818301018381535060010190525050565b620011b562001257565b836020015184515183011115620011e457620011e484620010ed8660200151856401000000006200120e810204565b60001961010083900a01845180518481830101868419825116179052909301909252509192915050565b60008183111562001221575081620004de565b50919050565b60608251905062001242838364010000000062000e8f810204565b620010ac8382640100000000620010b2810204565b60408051908101604052606081526000602082015290565b828054600181600116156101000203166002900490600052602060002090601f016020900481019282601f10620012b257805160ff1916838001178555620012e2565b82800160010185558215620012e2579182015b82811115620012e2578251825591602001919060010190620012c5565b50620012f0929150620012f4565b5090565b62000da991905b80821115620012f05760008155600101620012fb565b61185880620013216000396000f3fe6080604052600436106100535763ffffffff60e060020a60003504166327dc297e811461005857806338bbfa501461011357806341e5aca414610252578063439f01441461025a578063cb30078514610281575b600080fd5b34801561006457600080fd5b506101116004803603604081101561007b57600080fd5b8135919081019060408101602082013564010000000081111561009d57600080fd5b8201836020820111156100af57600080fd5b803590602001918460018302840111640100000000831117156100d157600080fd5b91908080601f01602080910402602001604051908101604052818152929190602084018383808284376000920191909152509295506104b8945050505050565b005b34801561011f57600080fd5b506101116004803603606081101561013657600080fd5b8135919081019060408101602082013564010000000081111561015857600080fd5b82018360208201111561016a57600080fd5b8035906020019184600183028401116401000000008311171561018c57600080fd5b91908080601f016020809104026020016040519081016040528181529291906020840183838082843760009201919091525092959493602081019350359150506401000000008111156101de57600080fd5b8201836020820111156101f057600080fd5b8035906020019184600183028401116401000000008311171561021257600080fd5b91908080601f01602080910402602001604051908101604052818152929190602084018383808284376000920191909152509295506104f3945050505050565b610111610557565b34801561026657600080fd5b5061026f610685565b60405190815260200160405180910390f35b6101116004803603608081101561029757600080fd5b8101906020810181356401000000008111156102b257600080fd5b8201836020820111156102c457600080fd5b803590602001918460018302840111640100000000831117156102e657600080fd5b91908080601f0160208091040260200160405190810160405281815292919060208401838380828437600092019190915250929594936020810193503591505064010000000081111561033857600080fd5b82018360208201111561034a57600080fd5b8035906020019184600183028401116401000000008311171561036c57600080fd5b91908080601f016020809104026020016040519081016040528181529291906020840183838082843760009201919091525092959493602081019350359150506401000000008111156103be57600080fd5b8201836020820111156103d057600080fd5b803590602001918460018302840111640100000000831117156103f257600080fd5b91908080601f0160208091040260200160405190810160405281815292919060208401838380828437600092019190915250929594936020810193503591505064010000000081111561044457600080fd5b82018360208201111561045657600080fd5b8035906020019184600183028401116401000000008311171561047857600080fd5b91908080601f016020809104026020016040519081016040528181529291906020840183838082843760009201919091525092955061068b945050505050565b6104ef82826000604051818152601f19601f83011681016020016040529080156104e9576020820181803883390190505b506104f3565b5050565b6104fb61077d565b600160a060020a0316331461050f57600080fd5b61051a826002610950565b60058190557fe2bfe242077230af3e6a33aabbceba1f745a22384200fc4ee1dbb4d1ab3ddb529060405190815260200160405180910390a1505050565b610683604080519081016040908152601982527f6a736f6e28726573756c74292e584554485a5553442e632e30000000000000006020830152805190810160405280600381526020017f4745540000000000000000000000000000000000000000000000000000000000815250606060405190810160405280603281526020017f68747470733a2f2f6170692e6b72616b656e2e636f6d2f302f7075626c69632f81526020017f5469636b65723f706169723d4554485553440000000000000000000000000000815250606060405190810160405280602581526020017f7b2768656164657273273a207b27636f6e74656e742d74797065273a20276a7381526020017f6f6e277d7d00000000000000000000000000000000000000000000000000000081525061068b565b565b60055481565b7fc4dc360d0a9c0677a3379ae0a3d81e887f761e65fdf3d7e00859d1bcd3c4738960405160208082526036908201527f50726f7661626c65207175657279207761732073656e742c207374616e64696e6040808301919091527f6720627920666f722074686520616e737765722e2e2e0000000000000000000060608301526080909101905180910390a16107766040805190810160405280600b81526020017f636f6d7075746174696f6e00000000000000000000000000000000000000000081525060806040519081016040528087815260200186815260200185815260200184815250610a74565b5050505050565b600154600090600160a060020a031615806107aa57506001546107a890600160a060020a0316610c8e565b155b156107bb576107b96000610c92565b505b600154600160a060020a03166338cc48316040518163ffffffff1660e060020a028152600401602060405180830381600087803b1580156107fb57600080fd5b505af115801561080f573d6000803e3d6000fd5b505050506040513d602081101561082557600080fd5b810190808051600054600160a060020a0390811691161492506108d991505057600154600160a060020a03166338cc48316040518163ffffffff1660e060020a028152600401602060405180830381600087803b15801561088557600080fd5b505af1158015610899573d6000803e3d6000fd5b505050506040513d60208110156108af57600080fd5b81019080805160008054600160a060020a031916600160a060020a03929092169190911790555050505b600054600160a060020a031663c281d19e6040518163ffffffff1660e060020a02815260040160206040518083038186803b15801561091757600080fd5b505afa15801561092b573d6000803e3d6000fd5b505050506040513d602081101561094157600080fd5b81019080805193505050505b90565b6000828180805b8351811015610a5657603084828151811061096e57fe5b016020015160f860020a900460f860020a0260f860020a900460ff16101580156109c0575060398482815181106109a157fe5b016020015160f860020a900460f860020a0260f860020a900460ff1611155b15610a195781156109df578515156109d757610a56565b600019909501945b600a8302925060308482815181106109f357fe5b016020015160f860020a900460f860020a0260f860020a900460ff160383019250610a4e565b838181518110610a2557fe5b016020015160f860020a900460f860020a0260f860020a900460ff16602e1415610a4e57600191505b600101610957565b506000851115610a695784600a0a820291505b509150505b92915050565b600154600090600160a060020a03161580610aa15750600154610a9f90600160a060020a0316610c8e565b155b15610ab257610ab06000610c92565b505b600154600160a060020a03166338cc48316040518163ffffffff1660e060020a028152600401602060405180830381600087803b158015610af257600080fd5b505af1158015610b06573d6000803e3d6000fd5b505050506040513d6020811015610b1c57600080fd5b810190808051600054600160a060020a039081169116149250610bd091505057600154600160a060020a03166338cc48316040518163ffffffff1660e060020a028152600401602060405180830381600087803b158015610b7c57600080fd5b505af1158015610b90573d6000803e3d6000fd5b505050506040513d6020811015610ba657600080fd5b81019080805160008054600160a060020a031916600160a060020a03929092169190911790555050505b60606004604051908082528060200260200182016040528015610c0757816020015b6060815260200190600190039081610bf25790505b509050825181600081518110610c1957fe5b60209081029091010152826001602002015181600181518110610c3857fe5b6020908102919091010152604083015181600281518110610c5557fe5b6020908102919091010152606083015181600381518110610c7257fe5b60209081029091010152610c868482610c9c565b949350505050565b3b90565b6000610a6e61106b565b600154600090600160a060020a03161580610cc95750600154610cc790600160a060020a0316610c8e565b155b15610cda57610cd86000610c92565b505b600154600160a060020a03166338cc48316040518163ffffffff1660e060020a028152600401602060405180830381600087803b158015610d1a57600080fd5b505af1158015610d2e573d6000803e3d6000fd5b505050506040513d6020811015610d4457600080fd5b810190808051600054600160a060020a039081169116149250610df891505057600154600160a060020a03166338cc48316040518163ffffffff1660e060020a028152600401602060405180830381600087803b158015610da457600080fd5b505af1158015610db8573d6000803e3d6000fd5b505050506040513d6020811015610dce57600080fd5b81019080805160008054600160a060020a031916600160a060020a03929092169190911790555050505b60008054600160a060020a031663524f3889856040518263ffffffff1660e060020a0281526004018080602001828103825283818151815260200191508051906020019080838360005b83811015610e5a578082015183820152602001610e42565b50505050905090810190601f168015610e875780820380516001836020036101000a031916815260200191505b5092505050602060405180830381600087803b158015610ea657600080fd5b505af1158015610eba573d6000803e3d6000fd5b505050506040513d6020811015610ed057600080fd5b8101908080519350505050670de0b6b3a764000062030d403a0201811115610efc575060009050610a6e565b6060610f0784611410565b60008054919250600160a060020a03909116906383eed3d590849088856040518563ffffffff1660e060020a028152600401808481526020018060200180602001838103835285818151815260200191508051906020019080838360005b83811015610f7d578082015183820152602001610f65565b50505050905090810190601f168015610faa5780820380516001836020036101000a031916815260200191505b50838103825284818151815260200191508051906020019080838360005b83811015610fe0578082015183820152602001610fc8565b50505050905090810190601f16801561100d5780820380516001836020036101000a031916815260200191505b50955050505050506020604051808303818588803b15801561102e57600080fd5b505af1158015611042573d6000803e3d6000fd5b50505050506040513d602081101561105957600080fd5b81019080805198975050505050505050565b60008061108b731d3b2638a7cc9f2cb3d298a3da7a90b67e5506ed610c8e565b11156110fb5760018054600160a060020a031916731d3b2638a7cc9f2cb3d298a3da7a90b67e5506ed1790556110f360408051908101604052600b81527f6574685f6d61696e6e65740000000000000000000000000000000000000000006020820152611484565b50600161094d565b600061111a73c03a2615d5efaf5f49f60b7bb6583eaec212fdf1610c8e565b11156111825760018054600160a060020a03191673c03a2615d5efaf5f49f60b7bb6583eaec212fdf11790556110f360408051908101604052600c81527f6574685f726f707374656e3300000000000000000000000000000000000000006020820152611484565b60006111a173b7a07bcf2ba2f2703b24c0691b5278999c59ac7e610c8e565b11156112095760018054600160a060020a03191673b7a07bcf2ba2f2703b24c0691b5278999c59ac7e1790556110f360408051908101604052600981527f6574685f6b6f76616e00000000000000000000000000000000000000000000006020820152611484565b600061122873146500cfd35b22e4a392fe0adc06de1a1368ed48610c8e565b11156112905760018054600160a060020a03191673146500cfd35b22e4a392fe0adc06de1a1368ed481790556110f360408051908101604052600b81527f6574685f72696e6b6562790000000000000000000000000000000000000000006020820152611484565b60006112af73a2998efd205fb9d4b4963afb70778d6354ad3a41610c8e565b11156113175760018054600160a060020a03191673a2998efd205fb9d4b4963afb70778d6354ad3a411790556110f360408051908101604052600a81527f6574685f676f65726c69000000000000000000000000000000000000000000006020820152611484565b6000611336736f485c8bf6fc43ea212e93bbf8ce046c7f1cb475610c8e565b1115611368575060018054600160a060020a031916736f485c8bf6fc43ea212e93bbf8ce046c7f1cb47517815561094d565b60006113877320e12a1f859b3feae5fb2a0a32c18f5a65555bbf610c8e565b11156113b9575060018054600160a060020a0319167320e12a1f859b3feae5fb2a0a32c18f5a65555bbf17815561094d565b60006113d87351efaf4c8b3c9afbd5ab9f4bbc82784ab6ef8faa610c8e565b111561140a575060018054600160a060020a0319167351efaf4c8b3c9afbd5ab9f4bbc82784ab6ef8faa17815561094d565b50600090565b606061141a611497565b61142261177c565b61142e816104006114a3565b611437816114d1565b60005b83518110156114715761146984828151811061145257fe5b90602001906020020151839063ffffffff6114df16565b60010161143a565b5061147b81611501565b80519392505050565b60028180516104ef929160200190611794565b60405180590338823950565b8060208106156114b65760208106602003015b60208301819052604051928390526000835290910160405250565b6114dc816004611508565b50565b6114ec8260038351611521565b6114fc828263ffffffff61162516565b505050565b6114dc8160075b6104ef82601f602060ff8516021763ffffffff6116be16565b601781116115425761153d8360ff8481166020021683176116be565b6114fc565b60ff811161157b57611563836018602060ff8616021763ffffffff6116be16565b6115758382600163ffffffff6116f716565b506114fc565b61ffff81116115af5761159d836019602060ff8616021763ffffffff6116be16565b6115758382600263ffffffff6116f716565b63ffffffff81116115e5576115d383601a602060ff8616021763ffffffff6116be16565b6115758382600463ffffffff6116f716565b67ffffffffffffffff81116114fc5761160d83601b602060ff8616021763ffffffff6116be16565b61161f8382600863ffffffff6116f716565b50505050565b61162d61177c565b8260200151835151835101111561165957611659836116518560200151855161174b565b600202611762565b60008060008451905085518051602081830101945086510190526020850191505b6020811061169a57815183526020928301929190910190601f190161167a565b60001960208290036101000a01801983511681855116179093525093949350505050565b816020015182515160010111156116e0576116e0828360200151600202611762565b815180516020818301018381535060010190525050565b6116ff61177c565b836020015184515183011115611721576117218461165186602001518561174b565b60001961010083900a01845180518481830101868419825116179052909301909252509192915050565b60008183111561175c575081610a6e565b50919050565b60608251905061177283836114a3565b61161f8382611625565b60408051908101604052606081526000602082015290565b828054600181600116156101000203166002900490600052602060002090601f016020900481019282601f106117d557805160ff1916838001178555611802565b82800160010185558215611802579182015b828111156118025782518255916020019190600101906117e7565b5061180e929150611812565b5090565b61094d91905b8082111561180e576000815560010161181856fea165627a7a72305820c6af2df03405daab74e1676e3f2a86cb40bb64a0493b451cf97d8352085d286d0029",
  "source": "pragma solidity 0.5.0;\n\nimport \"./provableAPI.sol\";\n\ncontract CreditScorePredict is usingProvable {\n\n    uint256 public creditScoreValue;\n\n    event LogNewScore(uint256 _creditScore);\n    event LogNewProvableQuery(string _description);\n\n    constructor()\n        public\n    {\n        fetchCreditScoreViaProvable();\n    }\n\n    function fetchCreditScoreViaProvable()\n        public\n        payable\n    {\n        request(\"json(result).XETHZUSD.c.0\",\n                \"GET\",\n                \"https://api.kraken.com/0/public/Ticker?pair=ETHUSD\",\n                \"{'headers': {'content-type': 'json'}}\"\n                );\n        // emit LogNewProvableQuery(\"Provable query in-flight!\");\n        // provable_query(\n        //     \"URL\",\n        //     \"json(https://api.kraken.com/0/public/Ticker?pair=ETHUSD).result.XETHZUSD.c.0\",{'headers': {'content-type': 'json'},\"Postal_Code_\" : \"H3V1A2\"}'\n        // );\n    }\n\n    function request(\n        string memory _query,\n        string memory _method,\n        string memory _url,\n        string memory _kwargs\n    )\n        public\n        payable\n    {\n            emit LogNewProvableQuery(\"Provable query was sent, standing by for the answer...\");\n            provable_query(\"computation\",\n                [_query,\n                _method,\n                _url,\n                _kwargs]\n            );\n    }\n\n    function __callback(\n        bytes32 _queryID,\n        string memory _result,\n        bytes memory _proof\n    )\n        public\n    {\n        require(msg.sender == provable_cbAddress());\n        creditScoreValue = parseInt(_result, 2);\n        emit LogNewScore(creditScoreValue);\n    }\n\n}\n",
  "sourcePath": "C:\\Users\\Heidi\\Desktop\\CreditScorePredict\\CreditScorePredict\\contracts\\CreditScorePredict.sol",
  "compiler": {
    "name": "solc",
    "version": "0.5.0+commit.1d4f565a.Emscripten.clang"
  },
  "schemaVersion": "3.0.23",
  "updatedAt": "2020-05-01T22:20:14.713Z",
  "networkType": "ethereum",
  "devdoc": {
    "methods": {
      "__callback(bytes32,string)": {
        "details": "The following `__callback` functions are just placeholders ideally     meant to be defined in child contract when proofs are used.     The function bodies simply silence compiler warnings."
      }
    }
  },
  "userdoc": {
    "methods": {}
  }
}