{
  "contractName": "CreditScorePredict",
  "abi": [
    {
      "constant": true,
      "inputs": [],
      "name": "creditScoreValue",
      "outputs": [
        {
          "name": "",
          "type": "uint256"
        }
      ],
      "payable": false,
      "stateMutability": "view",
      "type": "function"
    },
    {
      "inputs": [],
      "payable": false,
      "stateMutability": "nonpayable",
      "type": "constructor"
    },
    {
      "anonymous": false,
      "inputs": [
        {
          "indexed": false,
          "name": "_creditScore",
          "type": "uint256"
        }
      ],
      "name": "LogNewScore",
      "type": "event"
    },
    {
      "anonymous": false,
      "inputs": [
        {
          "indexed": false,
          "name": "_description",
          "type": "string"
        }
      ],
      "name": "LogNewProvableQuery",
      "type": "event"
    },
    {
      "constant": false,
      "inputs": [],
      "name": "fetchCreditScoreViaProvable",
      "outputs": [],
      "payable": true,
      "stateMutability": "payable",
      "type": "function"
    },
    {
      "constant": false,
      "inputs": [
        {
          "name": "_myid",
          "type": "bytes32"
        },
        {
          "name": "_result",
          "type": "string"
        }
      ],
      "name": "__callback",
      "outputs": [],
      "payable": false,
      "stateMutability": "nonpayable",
      "type": "function"
    },
    {
      "constant": false,
      "inputs": [
        {
          "name": "_queryID",
          "type": "bytes32"
        },
        {
          "name": "_result",
          "type": "string"
        },
        {
          "name": "_proof",
          "type": "bytes"
        }
      ],
      "name": "__callback",
      "outputs": [],
      "payable": false,
      "stateMutability": "nonpayable",
      "type": "function"
    }
  ],
  "bytecode": "0x60806040523480156200001157600080fd5b50620000256401000000006200002b810204565b62000ad4565b6040805160208082526019908201527f50726f7661626c6520717565727920696e2d666c6967687421000000000000008183015290517fc4dc360d0a9c0677a3379ae0a3d81e887f761e65fdf3d7e00859d1bcd3c473899181900360600190a16200015d6040805190810160405280600381526020017f55524c0000000000000000000000000000000000000000000000000000000000815250608060405190810160405280604c81526020017f6a736f6e2868747470733a2f2f6170692e6b72616b656e2e636f6d2f302f707581526020017f626c69632f5469636b65723f706169723d455448555344292e726573756c742e81526020017f584554485a5553442e632e30000000000000000000000000000000000000000081525062000160640100000000026401000000009004565b50565b600154600090600160a060020a031615806200019957506001546200019790600160a060020a0316640100000000620005ba810204565b155b15620001b657620001b46000640100000000620005be810204565b505b600160009054906101000a9004600160a060020a0316600160a060020a03166338cc48316040518163ffffffff167c0100000000000000000000000000000000000000000000000000000000028152600401602060405180830381600087803b1580156200022357600080fd5b505af115801562000238573d6000803e3d6000fd5b505050506040513d60208110156200024f57600080fd5b5051600054600160a060020a039081169116146200032257600160009054906101000a9004600160a060020a0316600160a060020a03166338cc48316040518163ffffffff167c0100000000000000000000000000000000000000000000000000000000028152600401602060405180830381600087803b158015620002d457600080fd5b505af1158015620002e9573d6000803e3d6000fd5b505050506040513d60208110156200030057600080fd5b505160008054600160a060020a031916600160a060020a039092169190911790555b600080546040517f524f3889000000000000000000000000000000000000000000000000000000008152602060048201818152875160248401528751600160a060020a039094169363524f38899389938392604490920191908501908083838b5b838110156200039d57818101518382015260200162000383565b50505050905090810190601f168015620003cb5780820380516001836020036101000a031916815260200191505b5092505050602060405180830381600087803b158015620003eb57600080fd5b505af115801562000400573d6000803e3d6000fd5b505050506040513d60208110156200041757600080fd5b50519050670de0b6b3a764000062030d403a02018111156200043e575060009050620005b4565b600080546040517fadf59f9900000000000000000000000000000000000000000000000000000000815260048101838152606060248301908152885160648401528851600160a060020a039094169463adf59f9994879491938b938b9391929091604481019160849091019060208701908083838b5b83811015620004ce578181015183820152602001620004b4565b50505050905090810190601f168015620004fc5780820380516001836020036101000a031916815260200191505b50838103825284518152845160209182019186019080838360005b838110156200053157818101518382015260200162000517565b50505050905090810190601f1680156200055f5780820380516001836020036101000a031916815260200191505b50955050505050506020604051808303818588803b1580156200058157600080fd5b505af115801562000596573d6000803e3d6000fd5b50505050506040513d6020811015620005ae57600080fd5b50519150505b92915050565b3b90565b6000620005b4640100000000620005d3810204565b600080620005fe731d3b2638a7cc9f2cb3d298a3da7a90b67e5506ed640100000000620005ba810204565b11156200067c5760018054600160a060020a031916731d3b2638a7cc9f2cb3d298a3da7a90b67e5506ed17905560408051808201909152600b81527f6574685f6d61696e6e65740000000000000000000000000000000000000000006020820152620006739064010000000062000a19810204565b50600162000a16565b6000620006a673c03a2615d5efaf5f49f60b7bb6583eaec212fdf1640100000000620005ba810204565b11156200071b5760018054600160a060020a03191673c03a2615d5efaf5f49f60b7bb6583eaec212fdf117905560408051808201909152600c81527f6574685f726f707374656e3300000000000000000000000000000000000000006020820152620006739064010000000062000a19810204565b60006200074573b7a07bcf2ba2f2703b24c0691b5278999c59ac7e640100000000620005ba810204565b1115620007ba5760018054600160a060020a03191673b7a07bcf2ba2f2703b24c0691b5278999c59ac7e17905560408051808201909152600981527f6574685f6b6f76616e00000000000000000000000000000000000000000000006020820152620006739064010000000062000a19810204565b6000620007e473146500cfd35b22e4a392fe0adc06de1a1368ed48640100000000620005ba810204565b1115620008595760018054600160a060020a03191673146500cfd35b22e4a392fe0adc06de1a1368ed4817905560408051808201909152600b81527f6574685f72696e6b6562790000000000000000000000000000000000000000006020820152620006739064010000000062000a19810204565b60006200088373a2998efd205fb9d4b4963afb70778d6354ad3a41640100000000620005ba810204565b1115620008f85760018054600160a060020a03191673a2998efd205fb9d4b4963afb70778d6354ad3a4117905560408051808201909152600a81527f6574685f676f65726c69000000000000000000000000000000000000000000006020820152620006739064010000000062000a19810204565b600062000922736f485c8bf6fc43ea212e93bbf8ce046c7f1cb475640100000000620005ba810204565b111562000956575060018054600160a060020a031916736f485c8bf6fc43ea212e93bbf8ce046c7f1cb47517815562000a16565b6000620009807320e12a1f859b3feae5fb2a0a32c18f5a65555bbf640100000000620005ba810204565b1115620009b4575060018054600160a060020a0319167320e12a1f859b3feae5fb2a0a32c18f5a65555bbf17815562000a16565b6000620009de7351efaf4c8b3c9afbd5ab9f4bbc82784ab6ef8faa640100000000620005ba810204565b111562000a12575060018054600160a060020a0319167351efaf4c8b3c9afbd5ab9f4bbc82784ab6ef8faa17815562000a16565b5060005b90565b805162000a2e90600290602084019062000a32565b5050565b828054600181600116156101000203166002900490600052602060002090601f016020900481019282601f1062000a7557805160ff191683800117855562000aa5565b8280016001018555821562000aa5579182015b8281111562000aa557825182559160200191906001019062000a88565b5062000ab392915062000ab7565b5090565b62000a1691905b8082111562000ab3576000815560010162000abe565b610fc48062000ae46000396000f3fe6080604052600436106100485763ffffffff60e060020a60003504166327dc297e811461004d57806338bbfa501461010957806341e5aca41461024a578063439f014414610252575b600080fd5b34801561005957600080fd5b506101076004803603604081101561007057600080fd5b8135919081019060408101602082013564010000000081111561009257600080fd5b8201836020820111156100a457600080fd5b803590602001918460018302840111640100000000831117156100c657600080fd5b91908080601f016020809104026020016040519081016040528093929190818152602001838380828437600092019190915250929550610279945050505050565b005b34801561011557600080fd5b506101076004803603606081101561012c57600080fd5b8135919081019060408101602082013564010000000081111561014e57600080fd5b82018360208201111561016057600080fd5b8035906020019184600183028401116401000000008311171561018257600080fd5b91908080601f01602080910402602001604051908101604052809392919081815260200183838082843760009201919091525092959493602081019350359150506401000000008111156101d557600080fd5b8201836020820111156101e757600080fd5b8035906020019184600183028401116401000000008311171561020957600080fd5b91908080601f016020809104026020016040519081016040528093929190818152602001838380828437600092019190915250929550610299945050505050565b6101076102fc565b34801561025e57600080fd5b50610267610420565b60408051918252519081900360200190f35b6040805160008152602081019091526102959083908390610299565b5050565b6102a1610426565b600160a060020a031633146102b557600080fd5b6102c0826002610619565b600581905560408051918252517fe2bfe242077230af3e6a33aabbceba1f745a22384200fc4ee1dbb4d1ab3ddb529181900360200190a1505050565b6040805160208082526019908201527f50726f7661626c6520717565727920696e2d666c6967687421000000000000008183015290517fc4dc360d0a9c0677a3379ae0a3d81e887f761e65fdf3d7e00859d1bcd3c473899181900360600190a161041d6040805190810160405280600381526020017f55524c0000000000000000000000000000000000000000000000000000000000815250608060405190810160405280604c81526020017f6a736f6e2868747470733a2f2f6170692e6b72616b656e2e636f6d2f302f707581526020017f626c69632f5469636b65723f706169723d455448555344292e726573756c742e81526020017f584554485a5553442e632e300000000000000000000000000000000000000000815250610749565b50565b60055481565b600154600090600160a060020a03161580610453575060015461045190600160a060020a0316610b3f565b155b15610464576104626000610b43565b505b600160009054906101000a9004600160a060020a0316600160a060020a03166338cc48316040518163ffffffff1660e060020a028152600401602060405180830381600087803b1580156104b757600080fd5b505af11580156104cb573d6000803e3d6000fd5b505050506040513d60208110156104e157600080fd5b5051600054600160a060020a0390811691161461059757600160009054906101000a9004600160a060020a0316600160a060020a03166338cc48316040518163ffffffff1660e060020a028152600401602060405180830381600087803b15801561054b57600080fd5b505af115801561055f573d6000803e3d6000fd5b505050506040513d602081101561057557600080fd5b505160008054600160a060020a031916600160a060020a039092169190911790555b6000809054906101000a9004600160a060020a0316600160a060020a031663c281d19e6040518163ffffffff1660e060020a02815260040160206040518083038186803b1580156105e757600080fd5b505afa1580156105fb573d6000803e3d6000fd5b505050506040513d602081101561061157600080fd5b505190505b90565b6000828180805b835181101561072b576030848281518110151561063957fe5b90602001015160f860020a900460f860020a0260f860020a900460ff161015801561068f57506039848281518110151561066f57fe5b90602001015160f860020a900460f860020a0260f860020a900460ff1611155b156106eb5781156106ae578515156106a65761072b565b600019909501945b600a83029250603084828151811015156106c457fe5b90602001015160f860020a900460f860020a0260f860020a900460ff160383019250610723565b83818151811015156106f957fe5b90602001015160f860020a900460f860020a0260f860020a900460ff16602e141561072357600191505b600101610620565b50600085111561073e5784600a0a820291505b509150505b92915050565b600154600090600160a060020a03161580610776575060015461077490600160a060020a0316610b3f565b155b15610787576107856000610b43565b505b600160009054906101000a9004600160a060020a0316600160a060020a03166338cc48316040518163ffffffff1660e060020a028152600401602060405180830381600087803b1580156107da57600080fd5b505af11580156107ee573d6000803e3d6000fd5b505050506040513d602081101561080457600080fd5b5051600054600160a060020a039081169116146108ba57600160009054906101000a9004600160a060020a0316600160a060020a03166338cc48316040518163ffffffff1660e060020a028152600401602060405180830381600087803b15801561086e57600080fd5b505af1158015610882573d6000803e3d6000fd5b505050506040513d602081101561089857600080fd5b505160008054600160a060020a031916600160a060020a039092169190911790555b600080546040517f524f3889000000000000000000000000000000000000000000000000000000008152602060048201818152875160248401528751600160a060020a039094169363524f38899389938392604490920191908501908083838b5b8381101561093357818101518382015260200161091b565b50505050905090810190601f1680156109605780820380516001836020036101000a031916815260200191505b5092505050602060405180830381600087803b15801561097f57600080fd5b505af1158015610993573d6000803e3d6000fd5b505050506040513d60208110156109a957600080fd5b50519050670de0b6b3a764000062030d403a02018111156109ce575060009050610743565b600080546040517fadf59f9900000000000000000000000000000000000000000000000000000000815260048101838152606060248301908152885160648401528851600160a060020a039094169463adf59f9994879491938b938b9391929091604481019160849091019060208701908083838b5b83811015610a5c578181015183820152602001610a44565b50505050905090810190601f168015610a895780820380516001836020036101000a031916815260200191505b50838103825284518152845160209182019186019080838360005b83811015610abc578181015183820152602001610aa4565b50505050905090810190601f168015610ae95780820380516001836020036101000a031916815260200191505b50955050505050506020604051808303818588803b158015610b0a57600080fd5b505af1158015610b1e573d6000803e3d6000fd5b50505050506040513d6020811015610b3557600080fd5b5051949350505050565b3b90565b6000610743600080610b68731d3b2638a7cc9f2cb3d298a3da7a90b67e5506ed610b3f565b1115610bd95760018054600160a060020a031916731d3b2638a7cc9f2cb3d298a3da7a90b67e5506ed17905560408051808201909152600b81527f6574685f6d61696e6e65740000000000000000000000000000000000000000006020820152610bd190610ef2565b506001610616565b6000610bf873c03a2615d5efaf5f49f60b7bb6583eaec212fdf1610b3f565b1115610c615760018054600160a060020a03191673c03a2615d5efaf5f49f60b7bb6583eaec212fdf117905560408051808201909152600c81527f6574685f726f707374656e3300000000000000000000000000000000000000006020820152610bd190610ef2565b6000610c8073b7a07bcf2ba2f2703b24c0691b5278999c59ac7e610b3f565b1115610ce95760018054600160a060020a03191673b7a07bcf2ba2f2703b24c0691b5278999c59ac7e17905560408051808201909152600981527f6574685f6b6f76616e00000000000000000000000000000000000000000000006020820152610bd190610ef2565b6000610d0873146500cfd35b22e4a392fe0adc06de1a1368ed48610b3f565b1115610d715760018054600160a060020a03191673146500cfd35b22e4a392fe0adc06de1a1368ed4817905560408051808201909152600b81527f6574685f72696e6b6562790000000000000000000000000000000000000000006020820152610bd190610ef2565b6000610d9073a2998efd205fb9d4b4963afb70778d6354ad3a41610b3f565b1115610df95760018054600160a060020a03191673a2998efd205fb9d4b4963afb70778d6354ad3a4117905560408051808201909152600a81527f6574685f676f65726c69000000000000000000000000000000000000000000006020820152610bd190610ef2565b6000610e18736f485c8bf6fc43ea212e93bbf8ce046c7f1cb475610b3f565b1115610e4a575060018054600160a060020a031916736f485c8bf6fc43ea212e93bbf8ce046c7f1cb475178155610616565b6000610e697320e12a1f859b3feae5fb2a0a32c18f5a65555bbf610b3f565b1115610e9b575060018054600160a060020a0319167320e12a1f859b3feae5fb2a0a32c18f5a65555bbf178155610616565b6000610eba7351efaf4c8b3c9afbd5ab9f4bbc82784ab6ef8faa610b3f565b1115610eec575060018054600160a060020a0319167351efaf4c8b3c9afbd5ab9f4bbc82784ab6ef8faa178155610616565b50600090565b8051610295906002906020840190828054600181600116156101000203166002900490600052602060002090601f016020900481019282601f10610f4157805160ff1916838001178555610f6e565b82800160010185558215610f6e579182015b82811115610f6e578251825591602001919060010190610f53565b50610f7a929150610f7e565b5090565b61061691905b80821115610f7a5760008155600101610f8456fea165627a7a72305820bfea07145c419c69884d5518c118d2419f9fe0cae35156682a8bffd73182d7ff0029",
  "source": "pragma solidity 0.5.0;\n\nimport \"./provableAPI.sol\";\n\ncontract CreditScorePredict is usingProvable {\n\n    uint256 public creditScoreValue;\n\n    event LogNewScore(uint256 _creditScore);\n    event LogNewProvableQuery(string _description);\n\n    constructor()\n        public\n    {\n        fetchCreditScoreViaProvable();\n    }\n\n    function fetchCreditScoreViaProvable()\n        public\n        payable\n    {\n        emit LogNewProvableQuery(\"Provable query in-flight!\");\n        provable_query(\n            \"URL\",\n            \"json(https://api.kraken.com/0/public/Ticker?pair=ETHUSD).result.XETHZUSD.c.0\"\n        );\n    }\n\n    function __callback(\n        bytes32 _queryID,\n        string memory _result,\n        bytes memory _proof\n    )\n        public\n    {\n        require(msg.sender == provable_cbAddress());\n        creditScoreValue = parseInt(_result, 2);\n        emit LogNewScore(creditScoreValue);\n    }\n\n}\n",
  "sourcePath": "C:\\Users\\Heidi\\Desktop\\CreditScorePredict\\CreditScorePredict\\contracts\\CreditScorePredict.sol",
  "compiler": {
    "name": "solc",
    "version": "0.5.0+commit.1d4f565a.Emscripten.clang"
  },
  "schemaVersion": "3.0.23",
  "updatedAt": "2020-05-01T02:27:25.256Z",
  "networkType": "ethereum",
  "devdoc": {
    "methods": {
      "__callback(bytes32,string)": {
        "details": "The following `__callback` functions are just placeholders ideally     meant to be defined in child contract when proofs are used.     The function bodies simply silence compiler warnings."
      }
    }
  },
  "userdoc": {
    "methods": {}
  }
}