{
  "contractName": "CreditScorePredict",
  "abi": [
    {
      "constant": true,
      "inputs": [],
      "name": "creditScoreValue",
      "outputs": [
        {
          "name": "",
          "type": "uint256"
        }
      ],
      "payable": false,
      "stateMutability": "view",
      "type": "function"
    },
    {
      "inputs": [],
      "payable": false,
      "stateMutability": "nonpayable",
      "type": "constructor"
    },
    {
      "anonymous": false,
      "inputs": [
        {
          "indexed": false,
          "name": "_creditScore",
          "type": "uint256"
        }
      ],
      "name": "LogNewScore",
      "type": "event"
    },
    {
      "anonymous": false,
      "inputs": [
        {
          "indexed": false,
          "name": "_description",
          "type": "string"
        }
      ],
      "name": "LogNewProvableQuery",
      "type": "event"
    },
    {
      "constant": false,
      "inputs": [
        {
          "name": "json",
          "type": "string"
        }
      ],
      "name": "fetchCreditScoreViaProvable",
      "outputs": [],
      "payable": true,
      "stateMutability": "payable",
      "type": "function"
    },
    {
      "constant": false,
      "inputs": [
        {
          "name": "_myid",
          "type": "bytes32"
        },
        {
          "name": "_result",
          "type": "string"
        }
      ],
      "name": "__callback",
      "outputs": [],
      "payable": false,
      "stateMutability": "nonpayable",
      "type": "function"
    },
    {
      "constant": false,
      "inputs": [
        {
          "name": "_queryID",
          "type": "bytes32"
        },
        {
          "name": "_result",
          "type": "string"
        },
        {
          "name": "_proof",
          "type": "bytes"
        }
      ],
      "name": "__callback",
      "outputs": [],
      "payable": false,
      "stateMutability": "nonpayable",
      "type": "function"
    }
  ],
  "bytecode": "0x60806040523480156200001157600080fd5b5060408051808201909152600281527f7b7d00000000000000000000000000000000000000000000000000000000000060208201526200005a9064010000000062000060810204565b62000b4a565b6040805160208082526019908201527f50726f7661626c6520717565727920696e2d666c6967687421000000000000008183015290517fc4dc360d0a9c0677a3379ae0a3d81e887f761e65fdf3d7e00859d1bcd3c473899181900360600190a16200016d6040805190810160405280600b81526020017f636f6d7075746174696f6e000000000000000000000000000000000000000000815250606060405190810160405280602e81526020017f516d5879374752487144746752364c41706d696d676669356533474b7977773181526020017f67774d6978695036554b4d5139320000000000000000000000000000000000008152508362000171640100000000026401000000009004565b5050565b600154600090600160a060020a03161580620001aa5750600154620001a890600160a060020a031664010000000062000634810204565b155b15620001c757620001c5600064010000000062000638810204565b505b600160009054906101000a9004600160a060020a0316600160a060020a03166338cc48316040518163ffffffff167c0100000000000000000000000000000000000000000000000000000000028152600401602060405180830381600087803b1580156200023457600080fd5b505af115801562000249573d6000803e3d6000fd5b505050506040513d60208110156200026057600080fd5b5051600054600160a060020a039081169116146200033357600160009054906101000a9004600160a060020a0316600160a060020a03166338cc48316040518163ffffffff167c0100000000000000000000000000000000000000000000000000000000028152600401602060405180830381600087803b158015620002e557600080fd5b505af1158015620002fa573d6000803e3d6000fd5b505050506040513d60208110156200031157600080fd5b505160008054600160a060020a031916600160a060020a039092169190911790555b600080546040517f524f3889000000000000000000000000000000000000000000000000000000008152602060048201818152885160248401528851600160a060020a039094169363524f3889938a938392604490920191908501908083838b5b83811015620003ae57818101518382015260200162000394565b50505050905090810190601f168015620003dc5780820380516001836020036101000a031916815260200191505b5092505050602060405180830381600087803b158015620003fc57600080fd5b505af115801562000411573d6000803e3d6000fd5b505050506040513d60208110156200042857600080fd5b50519050670de0b6b3a764000062030d403a02018111156200044f5750600090506200062d565b600080546040517f7722865900000000000000000000000000000000000000000000000000000000815260048101838152608060248301908152895160848401528951600160a060020a0390941694637722865994879491938c938c938c936044820191606481019160a49091019060208901908083838d5b83811015620004e2578181015183820152602001620004c8565b50505050905090810190601f168015620005105780820380516001836020036101000a031916815260200191505b50848103835286518152865160209182019188019080838360005b83811015620005455781810151838201526020016200052b565b50505050905090810190601f168015620005735780820380516001836020036101000a031916815260200191505b50848103825285518152855160209182019187019080838360005b83811015620005a85781810151838201526020016200058e565b50505050905090810190601f168015620005d65780820380516001836020036101000a031916815260200191505b509750505050505050506020604051808303818588803b158015620005fa57600080fd5b505af11580156200060f573d6000803e3d6000fd5b50505050506040513d60208110156200062757600080fd5b50519150505b9392505050565b3b90565b60006200064d64010000000062000653810204565b92915050565b6000806200067e731d3b2638a7cc9f2cb3d298a3da7a90b67e5506ed64010000000062000634810204565b1115620006fc5760018054600160a060020a031916731d3b2638a7cc9f2cb3d298a3da7a90b67e5506ed17905560408051808201909152600b81527f6574685f6d61696e6e65740000000000000000000000000000000000000000006020820152620006f39064010000000062000a99810204565b50600162000a96565b60006200072673c03a2615d5efaf5f49f60b7bb6583eaec212fdf164010000000062000634810204565b11156200079b5760018054600160a060020a03191673c03a2615d5efaf5f49f60b7bb6583eaec212fdf117905560408051808201909152600c81527f6574685f726f707374656e3300000000000000000000000000000000000000006020820152620006f39064010000000062000a99810204565b6000620007c573b7a07bcf2ba2f2703b24c0691b5278999c59ac7e64010000000062000634810204565b11156200083a5760018054600160a060020a03191673b7a07bcf2ba2f2703b24c0691b5278999c59ac7e17905560408051808201909152600981527f6574685f6b6f76616e00000000000000000000000000000000000000000000006020820152620006f39064010000000062000a99810204565b60006200086473146500cfd35b22e4a392fe0adc06de1a1368ed4864010000000062000634810204565b1115620008d95760018054600160a060020a03191673146500cfd35b22e4a392fe0adc06de1a1368ed4817905560408051808201909152600b81527f6574685f72696e6b6562790000000000000000000000000000000000000000006020820152620006f39064010000000062000a99810204565b60006200090373a2998efd205fb9d4b4963afb70778d6354ad3a4164010000000062000634810204565b1115620009785760018054600160a060020a03191673a2998efd205fb9d4b4963afb70778d6354ad3a4117905560408051808201909152600a81527f6574685f676f65726c69000000000000000000000000000000000000000000006020820152620006f39064010000000062000a99810204565b6000620009a2736f485c8bf6fc43ea212e93bbf8ce046c7f1cb47564010000000062000634810204565b1115620009d6575060018054600160a060020a031916736f485c8bf6fc43ea212e93bbf8ce046c7f1cb47517815562000a96565b600062000a007320e12a1f859b3feae5fb2a0a32c18f5a65555bbf64010000000062000634810204565b111562000a34575060018054600160a060020a0319167320e12a1f859b3feae5fb2a0a32c18f5a65555bbf17815562000a96565b600062000a5e7351efaf4c8b3c9afbd5ab9f4bbc82784ab6ef8faa64010000000062000634810204565b111562000a92575060018054600160a060020a0319167351efaf4c8b3c9afbd5ab9f4bbc82784ab6ef8faa17815562000a96565b5060005b90565b80516200016d906002906020840190828054600181600116156101000203166002900490600052602060002090601f016020900481019282601f1062000aeb57805160ff191683800117855562000b1b565b8280016001018555821562000b1b579182015b8281111562000b1b57825182559160200191906001019062000afe565b5062000b2992915062000b2d565b5090565b62000a9691905b8082111562000b29576000815560010162000b34565b6110ab8062000b5a6000396000f3fe6080604052600436106100485763ffffffff60e060020a60003504166327dc297e811461004d57806338bbfa5014610109578063439f01441461024a578063ac491d8714610271575b600080fd5b34801561005957600080fd5b506101076004803603604081101561007057600080fd5b8135919081019060408101602082013564010000000081111561009257600080fd5b8201836020820111156100a457600080fd5b803590602001918460018302840111640100000000831117156100c657600080fd5b91908080601f016020809104026020016040519081016040528093929190818152602001838380828437600092019190915250929550610317945050505050565b005b34801561011557600080fd5b506101076004803603606081101561012c57600080fd5b8135919081019060408101602082013564010000000081111561014e57600080fd5b82018360208201111561016057600080fd5b8035906020019184600183028401116401000000008311171561018257600080fd5b91908080601f01602080910402602001604051908101604052809392919081815260200183838082843760009201919091525092959493602081019350359150506401000000008111156101d557600080fd5b8201836020820111156101e757600080fd5b8035906020019184600183028401116401000000008311171561020957600080fd5b91908080601f016020809104026020016040519081016040528093929190818152602001838380828437600092019190915250929550610337945050505050565b34801561025657600080fd5b5061025f61039a565b60408051918252519081900360200190f35b6101076004803603602081101561028757600080fd5b8101906020810181356401000000008111156102a257600080fd5b8201836020820111156102b457600080fd5b803590602001918460018302840111640100000000831117156102d657600080fd5b91908080601f0160208091040260200160405190810160405280939291908181526020018383808284376000920191909152509295506103a0945050505050565b6040805160008152602081019091526103339083908390610337565b5050565b61033f61049c565b600160a060020a0316331461035357600080fd5b61035e82600261068f565b600581905560408051918252517fe2bfe242077230af3e6a33aabbceba1f745a22384200fc4ee1dbb4d1ab3ddb529181900360200190a1505050565b60055481565b6040805160208082526019908201527f50726f7661626c6520717565727920696e2d666c6967687421000000000000008183015290517fc4dc360d0a9c0677a3379ae0a3d81e887f761e65fdf3d7e00859d1bcd3c473899181900360600190a16103336040805190810160405280600b81526020017f636f6d7075746174696f6e000000000000000000000000000000000000000000815250606060405190810160405280602e81526020017f516d5879374752487144746752364c41706d696d676669356533474b7977773181526020017f67774d6978695036554b4d513932000000000000000000000000000000000000815250836107bd565b600154600090600160a060020a031615806104c957506001546104c790600160a060020a0316610c1b565b155b156104da576104d86000610c1f565b505b600160009054906101000a9004600160a060020a0316600160a060020a03166338cc48316040518163ffffffff1660e060020a028152600401602060405180830381600087803b15801561052d57600080fd5b505af1158015610541573d6000803e3d6000fd5b505050506040513d602081101561055757600080fd5b5051600054600160a060020a0390811691161461060d57600160009054906101000a9004600160a060020a0316600160a060020a03166338cc48316040518163ffffffff1660e060020a028152600401602060405180830381600087803b1580156105c157600080fd5b505af11580156105d5573d6000803e3d6000fd5b505050506040513d60208110156105eb57600080fd5b505160008054600160a060020a031916600160a060020a039092169190911790555b6000809054906101000a9004600160a060020a0316600160a060020a031663c281d19e6040518163ffffffff1660e060020a02815260040160206040518083038186803b15801561065d57600080fd5b505afa158015610671573d6000803e3d6000fd5b505050506040513d602081101561068757600080fd5b505190505b90565b6000828180805b83518110156107a157603084828151811015156106af57fe5b90602001015160f860020a900460f860020a0260f860020a900460ff16101580156107055750603984828151811015156106e557fe5b90602001015160f860020a900460f860020a0260f860020a900460ff1611155b156107615781156107245785151561071c576107a1565b600019909501945b600a830292506030848281518110151561073a57fe5b90602001015160f860020a900460f860020a0260f860020a900460ff160383019250610799565b838181518110151561076f57fe5b90602001015160f860020a900460f860020a0260f860020a900460ff16602e141561079957600191505b600101610696565b5060008511156107b45784600a0a820291505b50949350505050565b600154600090600160a060020a031615806107ea57506001546107e890600160a060020a0316610c1b565b155b156107fb576107f96000610c1f565b505b600160009054906101000a9004600160a060020a0316600160a060020a03166338cc48316040518163ffffffff1660e060020a028152600401602060405180830381600087803b15801561084e57600080fd5b505af1158015610862573d6000803e3d6000fd5b505050506040513d602081101561087857600080fd5b5051600054600160a060020a0390811691161461092e57600160009054906101000a9004600160a060020a0316600160a060020a03166338cc48316040518163ffffffff1660e060020a028152600401602060405180830381600087803b1580156108e257600080fd5b505af11580156108f6573d6000803e3d6000fd5b505050506040513d602081101561090c57600080fd5b505160008054600160a060020a031916600160a060020a039092169190911790555b600080546040517f524f3889000000000000000000000000000000000000000000000000000000008152602060048201818152885160248401528851600160a060020a039094169363524f3889938a938392604490920191908501908083838b5b838110156109a757818101518382015260200161098f565b50505050905090810190601f1680156109d45780820380516001836020036101000a031916815260200191505b5092505050602060405180830381600087803b1580156109f357600080fd5b505af1158015610a07573d6000803e3d6000fd5b505050506040513d6020811015610a1d57600080fd5b50519050670de0b6b3a764000062030d403a0201811115610a42575060009050610c14565b600080546040517f7722865900000000000000000000000000000000000000000000000000000000815260048101838152608060248301908152895160848401528951600160a060020a0390941694637722865994879491938c938c938c936044820191606481019160a49091019060208901908083838d5b83811015610ad3578181015183820152602001610abb565b50505050905090810190601f168015610b005780820380516001836020036101000a031916815260200191505b50848103835286518152865160209182019188019080838360005b83811015610b33578181015183820152602001610b1b565b50505050905090810190601f168015610b605780820380516001836020036101000a031916815260200191505b50848103825285518152855160209182019187019080838360005b83811015610b93578181015183820152602001610b7b565b50505050905090810190601f168015610bc05780820380516001836020036101000a031916815260200191505b509750505050505050506020604051808303818588803b158015610be357600080fd5b505af1158015610bf7573d6000803e3d6000fd5b50505050506040513d6020811015610c0e57600080fd5b50519150505b9392505050565b3b90565b6000610c29610c2f565b92915050565b600080610c4f731d3b2638a7cc9f2cb3d298a3da7a90b67e5506ed610c1b565b1115610cc05760018054600160a060020a031916731d3b2638a7cc9f2cb3d298a3da7a90b67e5506ed17905560408051808201909152600b81527f6574685f6d61696e6e65740000000000000000000000000000000000000000006020820152610cb890610fd9565b50600161068c565b6000610cdf73c03a2615d5efaf5f49f60b7bb6583eaec212fdf1610c1b565b1115610d485760018054600160a060020a03191673c03a2615d5efaf5f49f60b7bb6583eaec212fdf117905560408051808201909152600c81527f6574685f726f707374656e3300000000000000000000000000000000000000006020820152610cb890610fd9565b6000610d6773b7a07bcf2ba2f2703b24c0691b5278999c59ac7e610c1b565b1115610dd05760018054600160a060020a03191673b7a07bcf2ba2f2703b24c0691b5278999c59ac7e17905560408051808201909152600981527f6574685f6b6f76616e00000000000000000000000000000000000000000000006020820152610cb890610fd9565b6000610def73146500cfd35b22e4a392fe0adc06de1a1368ed48610c1b565b1115610e585760018054600160a060020a03191673146500cfd35b22e4a392fe0adc06de1a1368ed4817905560408051808201909152600b81527f6574685f72696e6b6562790000000000000000000000000000000000000000006020820152610cb890610fd9565b6000610e7773a2998efd205fb9d4b4963afb70778d6354ad3a41610c1b565b1115610ee05760018054600160a060020a03191673a2998efd205fb9d4b4963afb70778d6354ad3a4117905560408051808201909152600a81527f6574685f676f65726c69000000000000000000000000000000000000000000006020820152610cb890610fd9565b6000610eff736f485c8bf6fc43ea212e93bbf8ce046c7f1cb475610c1b565b1115610f31575060018054600160a060020a031916736f485c8bf6fc43ea212e93bbf8ce046c7f1cb47517815561068c565b6000610f507320e12a1f859b3feae5fb2a0a32c18f5a65555bbf610c1b565b1115610f82575060018054600160a060020a0319167320e12a1f859b3feae5fb2a0a32c18f5a65555bbf17815561068c565b6000610fa17351efaf4c8b3c9afbd5ab9f4bbc82784ab6ef8faa610c1b565b1115610fd3575060018054600160a060020a0319167351efaf4c8b3c9afbd5ab9f4bbc82784ab6ef8faa17815561068c565b50600090565b8051610333906002906020840190828054600181600116156101000203166002900490600052602060002090601f016020900481019282601f1061102857805160ff1916838001178555611055565b82800160010185558215611055579182015b8281111561105557825182559160200191906001019061103a565b50611061929150611065565b5090565b61068c91905b80821115611061576000815560010161106b56fea165627a7a7230582029509b13d20820f77bc1d53480d386e09210409b053838842fe4edc2e7e710e90029",
  "source": "pragma solidity 0.5.0;\n\nimport \"./provableAPI.sol\";\n\ncontract CreditScorePredict is usingProvable {\n\n    uint256 public creditScoreValue;\n\n    event LogNewScore(uint256 _creditScore);\n    event LogNewProvableQuery(string _description);\n\n    constructor()\n        public\n    {\n        fetchCreditScoreViaProvable('{}');\n    }\n\n    function fetchCreditScoreViaProvable(string memory json)\n        public\n        payable\n    {\n        emit LogNewProvableQuery(\"Provable query in-flight!\");\n        provable_query(\n            \"computation\",\n            \"QmXy7GRHqDtgR6LApmimgfi5e3GKyww1gwMixiP6UKMQ92\",\n             json\n        );\n    }\n\n    function __callback(\n        bytes32 _queryID,\n        string memory _result,\n        bytes memory _proof\n    )\n        public\n    {\n        require(msg.sender == provable_cbAddress());\n        creditScoreValue = parseInt(_result, 2);\n        emit LogNewScore(creditScoreValue);\n    }\n\n}\n\n\n\n// pragma solidity 0.5.0;\n\n// import \"./provableAPI.sol\";\n\n// contract CreditScorePredict is usingProvable {\n\n//     uint256 public creditScoreValue;\n\n//     event LogNewScore(uint256 _creditScore);\n//     event LogNewProvableQuery(string _description);\n\n//     constructor()\n//         public\n//     {\n//         fetchCreditScoreViaProvable();\n//     }\n\n//     function fetchCreditScoreViaProvable()\n//         public\n//         payable\n//     {\n//         emit LogNewProvableQuery(\"Provable query in-flight!\");\n//         provable_query(\"computation\",\n//                        \"QmXy7GRHqDtgR6LApmimgfi5e3GKyww1gwMixiP6UKMQ92\");     \n//     }\n\n//     function __callback(\n//         bytes32 _queryID,\n//         string memory _result,\n//         bytes memory _proof\n//     )\n//         public\n//     {\n//         require(msg.sender == provable_cbAddress());\n//         creditScoreValue = parseInt(_result, 2);\n//         emit LogNewScore(creditScoreValue);\n//     }\n\n// }\n",
  "sourcePath": "C:\\Users\\Heidi\\Desktop\\CreditScorePredict\\CreditScorePredict\\contracts\\CreditScorePredict.sol",
  "compiler": {
    "name": "solc",
    "version": "0.5.0+commit.1d4f565a.Emscripten.clang"
  },
  "schemaVersion": "3.0.23",
  "updatedAt": "2020-05-04T02:16:00.497Z",
  "networkType": "ethereum",
  "devdoc": {
    "methods": {
      "__callback(bytes32,string)": {
        "details": "The following `__callback` functions are just placeholders ideally     meant to be defined in child contract when proofs are used.     The function bodies simply silence compiler warnings."
      }
    }
  },
  "userdoc": {
    "methods": {}
  }
}